{
  "contractName": "CompanyState",
  "abi": [
    {
      "inputs": [
        {
          "name": "_company",
          "type": "address"
        },
        {
          "name": "_rewardCoin",
          "type": "address"
        }
      ],
      "payable": false,
      "stateMutability": "nonpayable",
      "type": "constructor"
    },
    {
      "anonymous": false,
      "inputs": [
        {
          "indexed": true,
          "name": "owner",
          "type": "address"
        },
        {
          "indexed": false,
          "name": "ide",
          "type": "uint32"
        },
        {
          "indexed": false,
          "name": "ideA",
          "type": "uint32"
        },
        {
          "indexed": false,
          "name": "ideB",
          "type": "uint32"
        },
        {
          "indexed": false,
          "name": "ideC",
          "type": "uint32"
        },
        {
          "indexed": false,
          "name": "npo",
          "type": "uint32"
        },
        {
          "indexed": false,
          "name": "npop",
          "type": "uint32"
        },
        {
          "indexed": false,
          "name": "reward",
          "type": "uint32"
        }
      ],
      "name": "StateRecorded",
      "type": "event"
    },
    {
      "constant": false,
      "inputs": [
        {
          "name": "_mgrsA",
          "type": "uint32"
        },
        {
          "name": "_mgrsB",
          "type": "uint32"
        },
        {
          "name": "_mgrsC",
          "type": "uint32"
        },
        {
          "name": "_wMgrsA",
          "type": "uint32"
        },
        {
          "name": "_wMgrsB",
          "type": "uint32"
        },
        {
          "name": "_wMgrsC",
          "type": "uint32"
        },
        {
          "name": "_npo",
          "type": "uint32"
        },
        {
          "name": "_npop",
          "type": "uint32"
        }
      ],
      "name": "setState",
      "outputs": [],
      "payable": false,
      "stateMutability": "nonpayable",
      "type": "function"
    },
    {
      "constant": true,
      "inputs": [],
      "name": "getLatestState",
      "outputs": [
        {
          "name": "mgrsLevelA",
          "type": "uint32"
        },
        {
          "name": "mgrsLevelB",
          "type": "uint32"
        },
        {
          "name": "mgrsLevelC",
          "type": "uint32"
        },
        {
          "name": "womenMgrsLevelA",
          "type": "uint32"
        },
        {
          "name": "womenMgrsLevelB",
          "type": "uint32"
        },
        {
          "name": "womenMgrsLevelC",
          "type": "uint32"
        },
        {
          "name": "npo",
          "type": "uint32"
        },
        {
          "name": "npop",
          "type": "uint32"
        },
        {
          "name": "ideA",
          "type": "uint32"
        },
        {
          "name": "ideB",
          "type": "uint32"
        },
        {
          "name": "ideC",
          "type": "uint32"
        },
        {
          "name": "ide",
          "type": "uint32"
        },
        {
          "name": "dateOfReport",
          "type": "uint256"
        }
      ],
      "payable": false,
      "stateMutability": "view",
      "type": "function"
    },
    {
      "constant": true,
      "inputs": [],
      "name": "getReward",
      "outputs": [
        {
          "name": "reward",
          "type": "uint256"
        }
      ],
      "payable": false,
      "stateMutability": "view",
      "type": "function"
    }
  ],
  "bytecode": "0x608060405234801561001057600080fd5b50604051604080610fe68339810180604052604081101561003057600080fd5b81019080805190602001909291908051906020019092919050505080600160006101000a81548173ffffffffffffffffffffffffffffffffffffffff021916908373ffffffffffffffffffffffffffffffffffffffff160217905550816000806101000a81548173ffffffffffffffffffffffffffffffffffffffff021916908373ffffffffffffffffffffffffffffffffffffffff1602179055505050610f09806100dd6000396000f3fe608060405234801561001057600080fd5b50600436106100415760003560e01c80632d904eb8146100465780633d18b91214610148578063b86d2c2114610166575b600080fd5b61004e61020b565b604051808e63ffffffff1663ffffffff1681526020018d63ffffffff1663ffffffff1681526020018c63ffffffff1663ffffffff1681526020018b63ffffffff1663ffffffff1681526020018a63ffffffff1663ffffffff1681526020018963ffffffff1663ffffffff1681526020018863ffffffff1663ffffffff1681526020018763ffffffff1663ffffffff1681526020018663ffffffff1663ffffffff1681526020018563ffffffff1663ffffffff1681526020018463ffffffff1663ffffffff1681526020018363ffffffff1663ffffffff1681526020018281526020019d505050505050505050505050505060405180910390f35b6101506104a8565b6040518082815260200191505060405180910390f35b610209600480360361010081101561017d57600080fd5b81019080803563ffffffff169060200190929190803563ffffffff169060200190929190803563ffffffff169060200190929190803563ffffffff169060200190929190803563ffffffff169060200190929190803563ffffffff169060200190929190803563ffffffff169060200190929190803563ffffffff16906020019092919050505061062e565b005b60008060008060008060008060008060008060008060016002805490500390506002818154811061023857fe5b906000526020600020906003020160000160009054906101000a900463ffffffff169d506002818154811061026957fe5b906000526020600020906003020160000160049054906101000a900463ffffffff169c506002818154811061029a57fe5b906000526020600020906003020160000160089054906101000a900463ffffffff169b50600281815481106102cb57fe5b9060005260206000209060030201600001600c9054906101000a900463ffffffff169a50600281815481106102fc57fe5b906000526020600020906003020160000160109054906101000a900463ffffffff1699506002818154811061032d57fe5b906000526020600020906003020160000160149054906101000a900463ffffffff1698506002818154811061035e57fe5b906000526020600020906003020160000160189054906101000a900463ffffffff1697506002818154811061038f57fe5b9060005260206000209060030201600001601c9054906101000a900463ffffffff169650600281815481106103c057fe5b906000526020600020906003020160010160009054906101000a900463ffffffff169550600281815481106103f157fe5b906000526020600020906003020160010160049054906101000a900463ffffffff1694506002818154811061042257fe5b906000526020600020906003020160010160089054906101000a900463ffffffff1693506002818154811061045357fe5b9060005260206000209060030201600101600c9054906101000a900463ffffffff1692506002818154811061048457fe5b906000526020600020906003020160020154915050909192939495969798999a9b9c565b60008060009054906101000a900473ffffffffffffffffffffffffffffffffffffffff1673ffffffffffffffffffffffffffffffffffffffff163373ffffffffffffffffffffffffffffffffffffffff161461054f576040517f08c379a0000000000000000000000000000000000000000000000000000000008152600401808060200182810382526028815260200180610e4f6028913960400191505060405180910390fd5b600160009054906101000a900473ffffffffffffffffffffffffffffffffffffffff1673ffffffffffffffffffffffffffffffffffffffff1663f8b2cb4f336040518263ffffffff1660e01b8152600401808273ffffffffffffffffffffffffffffffffffffffff1673ffffffffffffffffffffffffffffffffffffffff16815260200191505060206040518083038186803b1580156105ee57600080fd5b505afa158015610602573d6000803e3d6000fd5b505050506040513d602081101561061857600080fd5b8101908080519060200190929190505050905090565b3373ffffffffffffffffffffffffffffffffffffffff166000809054906101000a900473ffffffffffffffffffffffffffffffffffffffff1673ffffffffffffffffffffffffffffffffffffffff16146106d3576040517f08c379a0000000000000000000000000000000000000000000000000000000008152600401808060200182810382526028815260200180610e776028913960400191505060405180910390fd5b8763ffffffff168563ffffffff16111580156106fb57508663ffffffff168463ffffffff1611155b801561071357508563ffffffff168363ffffffff1611155b610768576040517f08c379a000000000000000000000000000000000000000000000000000000000815260040180806020018281038252603f815260200180610e9f603f913960400191505060405180910390fd5b610770610d9e565b428161018001818152505060008963ffffffff168760640263ffffffff168161079557fe5b04905060008963ffffffff168760640263ffffffff16816107b257fe5b04905060008963ffffffff168860640263ffffffff16816107cf57fe5b04905082606403830260040284610100019063ffffffff16908163ffffffff168152505081606403820260040284610120019063ffffffff16908163ffffffff168152505080606403810260040284610140019063ffffffff16908163ffffffff1681525050836101400151601e02846101200151602802856101000151601e02010184610160019063ffffffff16908163ffffffff16815250508b846000019063ffffffff16908163ffffffff16815250508a846020019063ffffffff16908163ffffffff168152505089846040019063ffffffff16908163ffffffff168152505088846060019063ffffffff16908163ffffffff168152505087846080019063ffffffff16908163ffffffff1681525050868460a0019063ffffffff16908163ffffffff1681525050858460c0019063ffffffff16908163ffffffff1681525050848460e0019063ffffffff16908163ffffffff16815250506002849080600181540180825580915050906001820390600052602060002090600302016000909192909190915060008201518160000160006101000a81548163ffffffff021916908363ffffffff16021790555060208201518160000160046101000a81548163ffffffff021916908363ffffffff16021790555060408201518160000160086101000a81548163ffffffff021916908363ffffffff160217905550606082015181600001600c6101000a81548163ffffffff021916908363ffffffff16021790555060808201518160000160106101000a81548163ffffffff021916908363ffffffff16021790555060a08201518160000160146101000a81548163ffffffff021916908363ffffffff16021790555060c08201518160000160186101000a81548163ffffffff021916908363ffffffff16021790555060e082015181600001601c6101000a81548163ffffffff021916908363ffffffff1602179055506101008201518160010160006101000a81548163ffffffff021916908363ffffffff1602179055506101208201518160010160046101000a81548163ffffffff021916908363ffffffff1602179055506101408201518160010160086101000a81548163ffffffff021916908363ffffffff16021790555061016082015181600101600c6101000a81548163ffffffff021916908363ffffffff160217905550610180820151816002015550505060008a8c8e010163ffffffff16888a8c010160640263ffffffff1681610b6057fe5b0490506000600160009054906101000a900473ffffffffffffffffffffffffffffffffffffffff1673ffffffffffffffffffffffffffffffffffffffff1663697fa28133886101600151858a60c001518b60e001516040518663ffffffff1660e01b8152600401808673ffffffffffffffffffffffffffffffffffffffff1673ffffffffffffffffffffffffffffffffffffffff1681526020018563ffffffff1663ffffffff1681526020018463ffffffff1663ffffffff1681526020018363ffffffff1663ffffffff1681526020018263ffffffff1663ffffffff16815260200195505050505050602060405180830381600087803b158015610c6357600080fd5b505af1158015610c77573d6000803e3d6000fd5b505050506040513d6020811015610c8d57600080fd5b810190808051906020019092919050505090503373ffffffffffffffffffffffffffffffffffffffff167f1701d242a1b75ed5cdf10512d1a8d92a6174e2b53c5fadbca140dcafc828c3af8761016001518861010001518961012001518a61014001518b60c001518c60e0015188604051808863ffffffff1663ffffffff1681526020018763ffffffff1663ffffffff1681526020018663ffffffff1663ffffffff1681526020018563ffffffff1663ffffffff1681526020018463ffffffff1663ffffffff1681526020018363ffffffff1663ffffffff1681526020018263ffffffff1663ffffffff16815260200197505050505050505060405180910390a25050505050505050505050505050565b604051806101a00160405280600063ffffffff168152602001600063ffffffff168152602001600063ffffffff168152602001600063ffffffff168152602001600063ffffffff168152602001600063ffffffff168152602001600063ffffffff168152602001600063ffffffff168152602001600063ffffffff168152602001600063ffffffff168152602001600063ffffffff168152602001600063ffffffff16815260200160008152509056fe4572726f72202d204f6e6c79206f776e65722063616e20636865636b206974732062616c616e63654572726f72202d204f6e6c79206f776e65722063616e207265706f727420696e64696361746f72734572726f722c20776f6d656e20657865637574697665732063616e6e6f742062652067726561746572207468616e20746f74616c2065786563757469766573a165627a7a72305820e3a8154a17a44e75ae7e517f2b5df7e2b0f4b35a8b755836a5104c5c44df1e9c0029",
  "source": "pragma solidity ^0.5.0;\n\nimport \"./RewardCoin.sol\";\nimport \"./ICompanyState.sol\";\n\n\ncontract CompanyState is ICompanySate {\n\n  address private owner;\n  RewardCoin private rewardCoin;\n  uint32 constant private factorA = 30;  // factor to adjust level A ratio\n  uint32 constant private factorB = 40;\n  uint32 constant private factorC = 30;\n\n  State[] KPIList;\n\n  constructor (address _company, address _rewardCoin) public {\n    rewardCoin = RewardCoin(_rewardCoin);\n    owner = _company;\n  }\n\n  event StateRecorded(address indexed owner, uint32 ide, uint32 ideA, uint32 ideB,\n                      uint32 ideC, uint32 npo, uint32 npop, uint32 reward);\n\n  function setState(uint32 _mgrsA, uint32 _mgrsB, uint32 _mgrsC,\n                    uint32 _wMgrsA, uint32 _wMgrsB, uint32 _wMgrsC, uint32 _npo,\n                    uint32 _npop) public {\n\n    require(owner == msg.sender, \"Error - Only owner can report indicators\");\n    require(((_wMgrsA <= _mgrsA) && (_wMgrsB <= _mgrsB) && ( _wMgrsC <= _mgrsC)), \"Error, women executives cannot be greater than total executives\");\n\n    State memory newReport;\n\n    newReport.dateOfReport = now;\n\n    // compute the rest of indicators and kpis\n    uint32 wMgrsA_Ratio = 100*_wMgrsA/_mgrsA;\n    uint32 wMgrsB_Ratio = 100*_wMgrsB/_mgrsB;\n    uint32 wMgrsC_Ratio = 100*_wMgrsB/_mgrsC;\n    newReport.ideA = 4*(wMgrsA_Ratio * (100 - wMgrsA_Ratio));\n    newReport.ideB = 4*(wMgrsB_Ratio * (100 - wMgrsB_Ratio));\n    newReport.ideC = 4*(wMgrsC_Ratio * (100 - wMgrsC_Ratio));\n    newReport.ide = factorA * newReport.ideA + factorB * newReport.ideB + factorC * newReport.ideC;\n\n    newReport.mgrsLevelA = _mgrsA;\n    newReport.mgrsLevelB = _mgrsB;\n    newReport.mgrsLevelC = _mgrsC;\n    newReport.womenMgrsLevelA = _wMgrsA;\n    newReport.womenMgrsLevelB = _wMgrsB;\n    newReport.womenMgrsLevelC = _wMgrsC;\n    newReport.npo = _npo;\n    newReport.npop = _npop;\n\n    // add new company state to the history log\n    KPIList.push(newReport);\n\n    uint32 womenMgrsRatio = 100*(_wMgrsA + _wMgrsB + _wMgrsC)/(_mgrsA + _mgrsB + _mgrsC);\n\n    uint32 reward = rewardCoin.setReward(msg.sender, newReport.ide, womenMgrsRatio,\n                                         newReport.npo, newReport.npop);\n    // emit StateRecorded(msg.sender, ide, ideA, ideB, ideC, npo, npop, reward);\n\n    emit StateRecorded(msg.sender, newReport.ide, newReport.ideA, newReport.ideB, newReport.ideC, newReport.npo, newReport.npop, reward);\n  }\n\n  function getLatestState() public view returns (\n      uint32 mgrsLevelA,\n      uint32 mgrsLevelB,\n      uint32 mgrsLevelC,\n      uint32 womenMgrsLevelA,\n      uint32 womenMgrsLevelB,\n      uint32 womenMgrsLevelC,\n      uint32 npo,\n      uint32 npop,\n      uint32 ideA,\n      uint32 ideB,\n      uint32 ideC,\n      uint32 ide,\n      uint256 dateOfReport) {\n\n    uint index = KPIList.length -1 ;\n\n    mgrsLevelA = KPIList[index].mgrsLevelA;\n    mgrsLevelB = KPIList[index].mgrsLevelB;\n    mgrsLevelC = KPIList[index].mgrsLevelC;\n    womenMgrsLevelA = KPIList[index].womenMgrsLevelA;\n    womenMgrsLevelB = KPIList[index].womenMgrsLevelB;\n    womenMgrsLevelC = KPIList[index].womenMgrsLevelC;\n    npo = KPIList[index].npo;\n    npop = KPIList[index].npop;\n    ideA = KPIList[index].ideA;\n    ideB = KPIList[index].ideB;\n    ideC = KPIList[index].ideC;\n    ide = KPIList[index].ide;\n    dateOfReport = KPIList[index].dateOfReport;\n\n  }\n\n  function getReward() public view returns (uint reward) {\n    // only owner can check its reward (current balance of tokens)\n    require(msg.sender == owner, \"Error - Only owner can check its balance\");\n\n    reward = rewardCoin.getBalance(msg.sender);\n  }\n\n\n}\n",
  "sourcePath": "/home/juan/BC_Challenge/agora/contracts/CompanyState.sol",
  "compiler": {
    "name": "solc",
    "version": "0.5.8+commit.23d335f2.Emscripten.clang"
  },
  "schemaVersion": "3.0.17",
  "updatedAt": "2019-11-02T19:25:24.591Z",
  "networkType": "ethereum",
  "devdoc": {
    "methods": {}
  },
  "userdoc": {
    "methods": {}
  }
}