{
  "contractName": "Factory",
  "abi": [
    {
      "inputs": [
        {
          "name": "_rewardCoin",
          "type": "address"
        }
      ],
      "payable": false,
      "stateMutability": "nonpayable",
      "type": "constructor"
    },
    {
      "anonymous": false,
      "inputs": [
        {
          "indexed": true,
          "name": "name",
          "type": "string"
        },
        {
          "indexed": true,
          "name": "companyContract",
          "type": "address"
        },
        {
          "indexed": false,
          "name": "result",
          "type": "bool"
        }
      ],
      "name": "CompanyRegistered",
      "type": "event"
    },
    {
      "constant": false,
      "inputs": [
        {
          "name": "_name",
          "type": "string"
        }
      ],
      "name": "registerCompany",
      "outputs": [
        {
          "name": "result",
          "type": "bool"
        }
      ],
      "payable": false,
      "stateMutability": "nonpayable",
      "type": "function"
    },
    {
      "constant": true,
      "inputs": [],
      "name": "getCompany",
      "outputs": [
        {
          "name": "name",
          "type": "string"
        },
        {
          "name": "cAddress",
          "type": "address"
        },
        {
          "name": "registered",
          "type": "bool"
        }
      ],
      "payable": false,
      "stateMutability": "view",
      "type": "function"
    }
  ],
  "bytecode": "0x608060405234801561001057600080fd5b506040516020806116b08339810180604052602081101561003057600080fd5b8101908080519060200190929190505050806000806101000a81548173ffffffffffffffffffffffffffffffffffffffff021916908373ffffffffffffffffffffffffffffffffffffffff1602179055505061161f806100916000396000f3fe608060405234801561001057600080fd5b50600436106100355760003560e01c80625441941461003a578063127810bc1461010d575b600080fd5b6100f36004803603602081101561005057600080fd5b810190808035906020019064010000000081111561006d57600080fd5b82018360208201111561007f57600080fd5b803590602001918460018302840111640100000000831117156100a157600080fd5b91908080601f016020809104026020016040519081016040528093929190818152602001838380828437600081840152601f19601f8201169050808301925050505050505091929192905050506101ce565b604051808215151515815260200191505060405180910390f35b610115610453565b60405180806020018473ffffffffffffffffffffffffffffffffffffffff1673ffffffffffffffffffffffffffffffffffffffff16815260200183151515158152602001828103825285818151815260200191508051906020019080838360005b83811015610191578082015181840152602081019050610176565b50505050905090810190601f1680156101be5780820380516001836020036101000a031916815260200191505b5094505050505060405180910390f35b6000801515600160000160009054906101000a900460ff1615151461023e576040517f08c379a00000000000000000000000000000000000000000000000000000000081526004018080602001828103825260228152602001806115d26022913960400191505060405180910390fd5b6000336000809054906101000a900473ffffffffffffffffffffffffffffffffffffffff1660405161026f90610539565b808373ffffffffffffffffffffffffffffffffffffffff1673ffffffffffffffffffffffffffffffffffffffff1681526020018273ffffffffffffffffffffffffffffffffffffffff1673ffffffffffffffffffffffffffffffffffffffff16815260200192505050604051809103906000f0801580156102f4573d6000803e3d6000fd5b50905060018060000160006101000a81548160ff0219169083151502179055508260018001908051906020019061032c929190610546565b5080600160020160006101000a81548173ffffffffffffffffffffffffffffffffffffffff021916908373ffffffffffffffffffffffffffffffffffffffff16021790555060019150600160020160009054906101000a900473ffffffffffffffffffffffffffffffffffffffff1673ffffffffffffffffffffffffffffffffffffffff16836040518082805190602001908083835b602083106103e557805182526020820191506020810190506020830392506103c2565b6001836020036101000a03801982511681845116808217855250505050505090500191505060405180910390207f0709ed6273534054e52b199c1737de079139d0a52d902ca24fdd94689f1e897984604051808215151515815260200191505060405180910390a350919050565b6060600080600160000160009054906101000a900460ff169050600160020160009054906101000a900473ffffffffffffffffffffffffffffffffffffffff169150600180018054600181600116156101000203166002900480601f01602080910402602001604051908101604052809291908181526020018280546001816001161561010002031660029004801561052d5780601f106105025761010080835404028352916020019161052d565b820191906000526020600020905b81548152906001019060200180831161051057829003601f168201915b50505050509250909192565b610fe6806105ec83390190565b828054600181600116156101000203166002900490600052602060002090601f016020900481019282601f1061058757805160ff19168380011785556105b5565b828001600101855582156105b5579182015b828111156105b4578251825591602001919060010190610599565b5b5090506105c291906105c6565b5090565b6105e891905b808211156105e45760008160009055506001016105cc565b5090565b9056fe608060405234801561001057600080fd5b50604051604080610fe68339810180604052604081101561003057600080fd5b81019080805190602001909291908051906020019092919050505080600160006101000a81548173ffffffffffffffffffffffffffffffffffffffff021916908373ffffffffffffffffffffffffffffffffffffffff160217905550816000806101000a81548173ffffffffffffffffffffffffffffffffffffffff021916908373ffffffffffffffffffffffffffffffffffffffff1602179055505050610f09806100dd6000396000f3fe608060405234801561001057600080fd5b50600436106100415760003560e01c80632d904eb8146100465780633d18b91214610148578063b86d2c2114610166575b600080fd5b61004e61020b565b604051808e63ffffffff1663ffffffff1681526020018d63ffffffff1663ffffffff1681526020018c63ffffffff1663ffffffff1681526020018b63ffffffff1663ffffffff1681526020018a63ffffffff1663ffffffff1681526020018963ffffffff1663ffffffff1681526020018863ffffffff1663ffffffff1681526020018763ffffffff1663ffffffff1681526020018663ffffffff1663ffffffff1681526020018563ffffffff1663ffffffff1681526020018463ffffffff1663ffffffff1681526020018363ffffffff1663ffffffff1681526020018281526020019d505050505050505050505050505060405180910390f35b6101506104a8565b6040518082815260200191505060405180910390f35b610209600480360361010081101561017d57600080fd5b81019080803563ffffffff169060200190929190803563ffffffff169060200190929190803563ffffffff169060200190929190803563ffffffff169060200190929190803563ffffffff169060200190929190803563ffffffff169060200190929190803563ffffffff169060200190929190803563ffffffff16906020019092919050505061062e565b005b60008060008060008060008060008060008060008060016002805490500390506002818154811061023857fe5b906000526020600020906003020160000160009054906101000a900463ffffffff169d506002818154811061026957fe5b906000526020600020906003020160000160049054906101000a900463ffffffff169c506002818154811061029a57fe5b906000526020600020906003020160000160089054906101000a900463ffffffff169b50600281815481106102cb57fe5b9060005260206000209060030201600001600c9054906101000a900463ffffffff169a50600281815481106102fc57fe5b906000526020600020906003020160000160109054906101000a900463ffffffff1699506002818154811061032d57fe5b906000526020600020906003020160000160149054906101000a900463ffffffff1698506002818154811061035e57fe5b906000526020600020906003020160000160189054906101000a900463ffffffff1697506002818154811061038f57fe5b9060005260206000209060030201600001601c9054906101000a900463ffffffff169650600281815481106103c057fe5b906000526020600020906003020160010160009054906101000a900463ffffffff169550600281815481106103f157fe5b906000526020600020906003020160010160049054906101000a900463ffffffff1694506002818154811061042257fe5b906000526020600020906003020160010160089054906101000a900463ffffffff1693506002818154811061045357fe5b9060005260206000209060030201600101600c9054906101000a900463ffffffff1692506002818154811061048457fe5b906000526020600020906003020160020154915050909192939495969798999a9b9c565b60008060009054906101000a900473ffffffffffffffffffffffffffffffffffffffff1673ffffffffffffffffffffffffffffffffffffffff163373ffffffffffffffffffffffffffffffffffffffff161461054f576040517f08c379a0000000000000000000000000000000000000000000000000000000008152600401808060200182810382526028815260200180610e4f6028913960400191505060405180910390fd5b600160009054906101000a900473ffffffffffffffffffffffffffffffffffffffff1673ffffffffffffffffffffffffffffffffffffffff1663f8b2cb4f336040518263ffffffff1660e01b8152600401808273ffffffffffffffffffffffffffffffffffffffff1673ffffffffffffffffffffffffffffffffffffffff16815260200191505060206040518083038186803b1580156105ee57600080fd5b505afa158015610602573d6000803e3d6000fd5b505050506040513d602081101561061857600080fd5b8101908080519060200190929190505050905090565b3373ffffffffffffffffffffffffffffffffffffffff166000809054906101000a900473ffffffffffffffffffffffffffffffffffffffff1673ffffffffffffffffffffffffffffffffffffffff16146106d3576040517f08c379a0000000000000000000000000000000000000000000000000000000008152600401808060200182810382526028815260200180610e776028913960400191505060405180910390fd5b8763ffffffff168563ffffffff16111580156106fb57508663ffffffff168463ffffffff1611155b801561071357508563ffffffff168363ffffffff1611155b610768576040517f08c379a000000000000000000000000000000000000000000000000000000000815260040180806020018281038252603f815260200180610e9f603f913960400191505060405180910390fd5b610770610d9e565b428161018001818152505060008963ffffffff168760640263ffffffff168161079557fe5b04905060008963ffffffff168760640263ffffffff16816107b257fe5b04905060008963ffffffff168860640263ffffffff16816107cf57fe5b04905082606403830260040284610100019063ffffffff16908163ffffffff168152505081606403820260040284610120019063ffffffff16908163ffffffff168152505080606403810260040284610140019063ffffffff16908163ffffffff1681525050836101400151601e02846101200151602802856101000151601e02010184610160019063ffffffff16908163ffffffff16815250508b846000019063ffffffff16908163ffffffff16815250508a846020019063ffffffff16908163ffffffff168152505089846040019063ffffffff16908163ffffffff168152505088846060019063ffffffff16908163ffffffff168152505087846080019063ffffffff16908163ffffffff1681525050868460a0019063ffffffff16908163ffffffff1681525050858460c0019063ffffffff16908163ffffffff1681525050848460e0019063ffffffff16908163ffffffff16815250506002849080600181540180825580915050906001820390600052602060002090600302016000909192909190915060008201518160000160006101000a81548163ffffffff021916908363ffffffff16021790555060208201518160000160046101000a81548163ffffffff021916908363ffffffff16021790555060408201518160000160086101000a81548163ffffffff021916908363ffffffff160217905550606082015181600001600c6101000a81548163ffffffff021916908363ffffffff16021790555060808201518160000160106101000a81548163ffffffff021916908363ffffffff16021790555060a08201518160000160146101000a81548163ffffffff021916908363ffffffff16021790555060c08201518160000160186101000a81548163ffffffff021916908363ffffffff16021790555060e082015181600001601c6101000a81548163ffffffff021916908363ffffffff1602179055506101008201518160010160006101000a81548163ffffffff021916908363ffffffff1602179055506101208201518160010160046101000a81548163ffffffff021916908363ffffffff1602179055506101408201518160010160086101000a81548163ffffffff021916908363ffffffff16021790555061016082015181600101600c6101000a81548163ffffffff021916908363ffffffff160217905550610180820151816002015550505060008a8c8e010163ffffffff16888a8c010160640263ffffffff1681610b6057fe5b0490506000600160009054906101000a900473ffffffffffffffffffffffffffffffffffffffff1673ffffffffffffffffffffffffffffffffffffffff1663697fa28133886101600151858a60c001518b60e001516040518663ffffffff1660e01b8152600401808673ffffffffffffffffffffffffffffffffffffffff1673ffffffffffffffffffffffffffffffffffffffff1681526020018563ffffffff1663ffffffff1681526020018463ffffffff1663ffffffff1681526020018363ffffffff1663ffffffff1681526020018263ffffffff1663ffffffff16815260200195505050505050602060405180830381600087803b158015610c6357600080fd5b505af1158015610c77573d6000803e3d6000fd5b505050506040513d6020811015610c8d57600080fd5b810190808051906020019092919050505090503373ffffffffffffffffffffffffffffffffffffffff167f1701d242a1b75ed5cdf10512d1a8d92a6174e2b53c5fadbca140dcafc828c3af8761016001518861010001518961012001518a61014001518b60c001518c60e0015188604051808863ffffffff1663ffffffff1681526020018763ffffffff1663ffffffff1681526020018663ffffffff1663ffffffff1681526020018563ffffffff1663ffffffff1681526020018463ffffffff1663ffffffff1681526020018363ffffffff1663ffffffff1681526020018263ffffffff1663ffffffff16815260200197505050505050505060405180910390a25050505050505050505050505050565b604051806101a00160405280600063ffffffff168152602001600063ffffffff168152602001600063ffffffff168152602001600063ffffffff168152602001600063ffffffff168152602001600063ffffffff168152602001600063ffffffff168152602001600063ffffffff168152602001600063ffffffff168152602001600063ffffffff168152602001600063ffffffff168152602001600063ffffffff16815260200160008152509056fe4572726f72202d204f6e6c79206f776e65722063616e20636865636b206974732062616c616e63654572726f72202d204f6e6c79206f776e65722063616e207265706f727420696e64696361746f72734572726f722c20776f6d656e20657865637574697665732063616e6e6f742062652067726561746572207468616e20746f74616c2065786563757469766573a165627a7a72305820e3a8154a17a44e75ae7e517f2b5df7e2b0f4b35a8b755836a5104c5c44df1e9c00294572726f72202d20436f6d70616e7920616c72656164792072656769737465726564a165627a7a72305820d7ed12f57f74dbed2b4774967109b107425bd715a8be9b57fb95f8ae941f204c0029",
  "source": "pragma solidity ^0.5.0;\n\nimport \"./CompanyState.sol\";\nimport \"./RewardCoin.sol\";\n\ncontract Factory {\n\n  address private rewardCoin;\n\n  struct RegisteredCompany {\n    bool registered;\n    string name;\n    address companyContract;\n  }\n\n  RegisteredCompany private company;\n\n  constructor (address _rewardCoin) public {\n    rewardCoin = _rewardCoin;\n  }\n\n  event CompanyRegistered(string indexed name, address indexed companyContract, bool result);\n\n  function registerCompany(string memory _name)\n                      public returns (bool result) {\n    require(company.registered == false, \"Error - Company already registered\");\n    // proceed to create a new contract for the company and add it to the mapping of registered companies\n    CompanyState companyContract = new CompanyState(msg.sender, rewardCoin);\n\n    company.registered = true;\n    company.name = _name;\n    company.companyContract = address(companyContract);\n\n    result = true;\n\n    emit CompanyRegistered(_name, company.companyContract, result);\n\n  }\n\n  function getCompany() public view returns(string memory name, address cAddress, bool registered){\n\n    registered = company.registered;\n    cAddress = company.companyContract;\n    name = company.name;\n\n  }\n\n}\n",
  "sourcePath": "/home/juan/BC_Challenge/agora/contracts/Factory.sol",
  "compiler": {
    "name": "solc",
    "version": "0.5.8+commit.23d335f2.Emscripten.clang"
  },
  "schemaVersion": "3.0.17",
  "updatedAt": "2019-11-02T19:25:24.367Z",
  "networkType": "ethereum",
  "devdoc": {
    "methods": {}
  },
  "userdoc": {
    "methods": {}
  }
}